:04000000D5EF06F042
:08000800046ED8CF05F0E0CF33
:1000100006F00001E9CF0CF0EACF07F0E1CF08F0DD
:10002000E2CF09F0D9CF0AF0DACF0BF0F3CF12F01C
:10003000F4CF13F0FACF14F0F5CF15F0F6CF16F099
:10004000F7CF17F000C00EF001C00FF002C010F0A3
:1000500003C011F09DAA30EF00F09EBA71EF00F0DE
:100060000EC000F00FC001F010C002F011C003F08C
:100070000CC0E9FF07C0EAFF078E08C0E1FF09C016
:10008000E2FF0AC0D9FF0BC0DAFF12C0F3FF13C0B2
:10009000F4FF14C0FAFF15C0F5FF16C0F6FF17C035
:1000A000F7FF045006C0E0FF05C0D8FF1000F76A54
:1000B000BE0FF66E000EF7220900F5501200303127
:1000C0003233343536373839414243444546F76A8E
:1000D000DE0FF66E000EF7220900F5501200280C14
:1000E00001069EAAFED7AECF36F03550352A036AF8
:1000F0002B0FE96E000E0320EA6E36C0EFFF9E9ACA
:1001000030EF00F00C596561722032303A20000067
:100110000C4D6F6E74683A2000000C4461793A20EF
:1001200000000C5765656B64617920312D373A20EA
:1001300000000C486F75723A20000C4D696E3A2031
:1001400000000C53542D484F55523A2000000C53D8
:10015000542D4D494E3A20000C454E442D484F55E4
:10016000523A20000C454E442D4D494E3A20000095
:100170000C4455522D484F55523A20000C445552CC
:100180002D4D494E3A2000000C0053544152544921
:100190004E4700000C00474F54204249472045007D
:1001A0000C00474F5420534D414C4C2065000C002F
:1001B00053594E43205355434345535300000C00BD
:1001C0004449534B20464F554E4400000C004449CF
:1001D000534B204E4F5420464F554E4400000C20A8
:1001E0005052455353203120544F20534554200042
:1001F0004F505720526573756C74732E6461740090
:10020000434C4620526573756C74732E64617400A0
:100210004D4541535552454D454E5420434F4D5049
:100220004C455445440A0000EA6A590EE96EEF5005
:100230000EE0030E016E006A002EFED7012EFBD7E2
:100240003C0E006E002EFED700D0EF2EF2D712002B
:100250006038F00B006E0F0E8C1400108C6E00D006
:100260008D8400D000D000008D9412000F0E9514E4
:10027000F009956E8D8200D08D8400D083380F0BED
:10028000606E8D9400D08D8400D083380F0B5F6E2C
:100290008D940F0E9514956E6038006EF00E00165A
:1002A00000505F10016E58EF01F08D9000D0DED746
:1002B00001C05FF001BEFBD78D905DB08D8000D096
:1002C0008D9200D08D945E385F6E0F0E5F165FC00A
:1002D00060F0BEDF5E500F0B5F6E606EB9DF120024
:1002E0000F0E9514956E8D908D928D94F80E961636
:1002F0000F0E596E99DF010E506E5050030808E33F
:10030000030E606EA5DF050E596E8EDF502AF5D7FD
:10031000020E606E9DDF050E596E86DF506A5050EA
:10032000030809E3036A5050D2DE516E5D6A5E6EC7
:10033000BCDF502AF4D704EF07F0606A605007086A
:100340000DE3D8905F3202E28C9601D08C869596B0
:1003500095928C8295928C92602AF0D71200959497
:100360008C845DC05FF0E9DF5EC05FF0E6DF9594EE
:100370008C94120095948C8454C05FF0DEDF9586D7
:1003800000D0556A5550070813E3958683B602D00E
:10039000D89001D0D880563295928C8200D000D06F
:1003A000000095928C9200D000D00000552AEAD728
:1003B00095948C9456C001F0120095948C9400D0C2
:1003C00000D0000095928C928E0E5D6E5E6AC7DF43
:1003D000900E5D6EA40E5E6EC2DF810E546ECADF9B
:1003E00001C050F05050800B04E0800E5D6E5E6ADC
:1003F000B6DF06EF07F0F19E08EF07F05A2C01D0A8
:1004000003D0400E5B6E01D05B6A010E595C5B2627
:100410005B5080095C6E5D6A5E6E47DF30EF02F014
:1004200058500C0A05E0060A0BE0020A0FE013D050
:100430005D6A010E5E6E39DF020E596EF5DE10D078
:10044000010E596E020E5A6ED9D70AD05D6A100E8F
:100450005E6E2BDF05D0010E5D6E58C05EF025DFAD
:1004600012000900F5520CE0F6CF56F0F7CF57F026
:10047000F5CF58F0D5DF56C0F6FF57C0F7FFF1D7DC
:1004800012009EA8FED7AD6E12009380000E81B0C0
:10049000010E5A6E9382000E81B2010E5A16938499
:1004A000000E81B4010E5A169386000E81B6010E1D
:1004B0005A1404E0000E016E03D002D0010E016E4A
:1004C0001200586A192A1950960862E21C50FC0F53
:1004D00026E2040FCBEF02F093988A98939A8A8AC7
:1004E000939C8A8C939E8A8E1AD093988A88939A2A
:1004F0008A9A939C8A8C939E8A8E11D093988A882C
:10050000939A8A8A939C8A9C939E8A8E08D0939809
:100510008A88939A8A8A939C8A8C939E8A9E1AA030
:1005200008D0B3DF015204E11A901BC058F01B6AD7
:100530002ED0ABDF015226E0938081B002D0596A01
:1005400011D0938281B203D0010E596E0BD09384E7
:1005500081B403D0020E596E05D0938681B602D0C5
:10056000030E596E5950040DF3505B6A5A6E036ABC
:100570001C505A24016E5B500322015098DD1B6E03
:100580001A8005D01C2A1C50040801E11C6A196A53
:1005900058C001F01200E824F76AF736B10FF66E82
:1005A000050EF7220A00F550FA6E0800F550F96EB4
:1005B000D804EA04FC040E0584DF01C056F056504E
:1005C0002F08FAE256503908F7E356C058F028DFF2
:1005D000300E565E640E596E27DE73DF01C057F091
:1005E00057502F08FAE257503908F7E357C058F030
:1005F00017DF300E575E640E596E16DE56500A0D28
:10060000F3505724016E12006050016A5F5C03E2F0
:100610005FC000F00CD0006A080E616E5F360036D5
:100620006050005CD8B0006E0136612EF7D7120022
:100630005CC05FF00A0E606EE7DF01C05DF05D50E8
:100640000A0DF3505C5C5E6E5D38006EF00E0016B5
:1006500000505E10016E120056C05CF0E9DF01C070
:100660005CF0860E5D6E01C05EF079DE57C05CF016
:10067000DFDF01C05CF0880E5D6E01C05EF06FDEF2
:1006800058C05CF0D5DF01C05CF08C0E5D6E01C01F
:100690005EF065DE59C05CF0CBDF01C05CF08A0E15
:1006A0005D6E01C05EF05BDE5AC05CF0C1DF01C070
:1006B0005CF0840E5D6E01C05EF051DE5BC05CF0EC
:1006C000B7DF01C05CF0820E5D6E01C05EF047DEF8
:1006D0005C6AAEDF01C05CF0800E5D6E01C05EF052
:1006E0003EDEBFEF03F0040EF66E010EF76EB9DECC
:1006F00063DF01C052F0320E596E96DD100EF66EB9
:10070000010EF76EAEDE58DF01C051F0320E596EA9
:100710008BDD1A0EF66E010EF76EA3DE4DDF01C003
:1007200050F0320E596E80DD220EF66E010EF76E1D
:1007300098DE42DF01C053F0320E596E75DD320E85
:10074000F66E010EF76E8DDE37DF01C054F0320E0B
:10075000596E6ADD3A0EF66E010EF76E82DE2CDF00
:1007600001C055F050C056F051C057F052C058F07B
:1007700053C059F054C05AF055C05BF06DD7E8EF44
:1007800007F0420EF66E010EF76E6BDE15DF01C04C
:1007900025F0320E596E48DD4E0EF66E010EF76EE4
:1007A00060DE0ADF01C026F0320E596E3DDD580EC4
:1007B000F66E010EF76E55DEFFDE01C027F0320E39
:1007C000596E32DD640EF66E010EF76E4ADEF4DE0F
:1007D00001C028F0320E596E27DD700EF66E010E44
:1007E000F76E3FDEE9DE01C029F07C0EF66E010EE9
:1007F000F76E37DEE1DE01C02AF0320E596E14DDED
:10080000EAEF07F055C056F05638006E0F0E00168E
:1008100000500A0DF3CF55F05638006EF00E00165A
:100820000050003A0F0E00160050552655C001F03A
:100830001200015050C05FF0640E606EE5DE00C033
:1008400050F00150300E07E151A20CD051B60AD041
:1008500051B8200E03D0519651985180012601C005
:1008600058F0DEDD50C05FF00A0E606ECDDE00C0D5
:1008700050F00150300E06E151B608D051A006D01C
:1008800051B8200E012601C058F0CADD300E5026A6
:1008900050C058F0C5DD12008E0E006E53C001F03E
:1008A00052C002F0036A015209E102C001F0026A7B
:1008B000080E005E015202E1006A08D0D89001BE25
:1008C00004D0023601360006F9D7019E12005D50B1
:1008D000D8B471D0006E6150D8B46DD0002604E356
:1008E000810E002668E204D07F0E005E64E363E0C0
:1008F0005EC065F06250651A5E8E628E6050640262
:10090000F4CF67F05F506302F4CF03F0F3CF66F0EB
:100910006402F3506726F4506622000E03226050F2
:100920006302F3506726F4506622000E026A032227
:1009300002225E506402F3506626F4500322000E39
:1009400002225E506302F3500326F4500222000E8E
:10095000016A012260506202F3506626F4500322BD
:10096000000E022201225F506202F3500326F4506F
:100970000222000E01225E506202F3500226F45061
:100980000122002A01BE05D0663603360236013642
:100990000006000E66AE0AD0032A02220122015090
:1009A00005E1025003E1035001E1002A65BE018E1A
:1009B00065AE019E04D0006A016A026A036A1200F1
:1009C0005450D8B4A5D0606E5850D8B4A1D0605E51
:1009D00005E37F0E6026D8B09BD006D0810E605E06
:1009E000D8A096D0D8B494D060C000F0016A026A52
:1009F000036A5F6A55C05EF05E8E56C05DF057C0F8
:100A00005CF0190E606E5B505C5E0DE2010E5D5E87
:100A10000AE25E5E08E25F5E06E25F2A5E2A5D2A07
:100A20005B505C2628D05A505D5E12E2010E5E5E7D
:100A30000FE25F5E0DE25F2A5E2A5A505D265B5030
:100A40005C2619E35D2A17E15E2A15E15F2A13D0BF
:100A5000595080095E5E0EE2010E5F5E0BE25F2A76
:100A6000595080095E265A505D26E9E35E2AE7E187
:100A70005F2AE5D70380602E01D00BD0D8905C367A
:100A80005D365E365F36D890033602360136613603
:100A9000BAD761A006D0D890013202320332613257
:100AA00002D0000635E061BE1ED0D8905C365D36BF
:100AB0005E365F365B505C5E07E2010E5D5E04E20F
:100AC0005E5E02E25F5E1AE35A505D5E05E2010E71
:100AD0005E5E02E25F5E12E3595080095E5E03E2F1
:100AE000010E5F5E0BE3032A09E1022A07E1012AF6
:100AF00005E1002A0DE001320232033255C060F0F8
:100B00005950601A60AE02D0018E06D0019E04D00A
:100B1000006A016A026A036A120050505202F3CF5F
:100B200001F0F4CF00F05302F3500026515052026E
:100B3000F3500020026ED1EF09F00900F5520DE0EC
:100B4000F6CF50F0F7CF51F0F5509EA8FED7AD6E1E
:100B500050C0F6FF51C0F7FFF0D712005D50B60845
:100B60005D6E036A5EC061F05E8ED8905E325F3269
:100B7000603203320232013200325D2EF6D761AEAE
:100B80000BD0001E011E021E031E002AD8B4012A2B
:100B9000D8B4022AD8B4032A3CEF06F0D8B203D066
:100BA000EA6A650EE96E006A016A026A036A656AAA
:100BB000666A676A686A64506310621061102CE0AC
:100BC000200E696ED8905D365E365F3660366536CB
:100BD0006636673668366450685C08E16350675C67
:100BE00005E16250665C02E16150655C0FE36150B3
:100BF000655E6250D8A0623C665E6350D8A0633CDC
:100C0000675E6450D8A0643C685ED88000360136C8
:100C100002360336692ED6D765C0EFFF66C0ECFFFB
:100C200067C0ECFF68C0ECFF1200E950556E5450ED
:100C3000576E19E053C060F052C05FF051C05EF0D3
:100C400050C05DF0646A636A200E626E820E616E4F
:100C50003EDE03C053F002C052F001C051F000C0AC
:100C600050F0572EE7D753C060F052C05FF051C02C
:100C70005EF050C05DF072D703C053F002C052F076
:100C800001C051F000C050F053AE0DD05506558A4A
:100C9000501E511E521E531E502AD8B4512AD8B489
:100CA000522AD8B4532A3B0E5C6E9A0E5B6ECA0E63
:100CB0005A6E596A0A0E576E5450D8B4552AD882C3
:100CC000EA6A500EE96E53C060F052C05FF051C046
:100CD0005EF050C05DF05CC064F05BC063F05AC071
:100CE00062F059C061F05ADF015000520FE1542800
:100CF000575C0CE055500CE00F0B575C01E03BE2F9
:100D000055BE39D055BC04D0200E30D0200E55161B
:100D100055AA0DD0559A5450D8A455060050556E7A
:100D20002D0E9EA8FED7AD6E5550006E556A5450DC
:100D3000575C0BE10050556E2E0E9EA8FED7AD6E8F
:100D40005550006E200E5516000E300E55AA0ED0CE
:100D5000559A5450D8A455060050556E2D0E9EA895
:100D6000FED7AD6E5550006E556A300E002600500D
:100D70009EA8FED7AD6ED8925CC060F05BC05FF0FD
:100D80005AC05EF059C05DF0646A636A626A0A0E16
:100D9000616E04DF03C05CF002C05BF001C05AF07A
:100DA00000C059F0572E8BD71200F86AD09E078EDC
:100DB000400EAF6EA60EAC6E900EAB6E356A426AF8
:100DC000416AC180C182C184C1961A90196A1A9081
:100DD0001B6A1C6A1D6A1E6A446A456AF19E880E77
:100DE000946E000E956E94948B94C190C192C194B0
:100DF000C196C19CC28CC28EC18EC2809D8AC00E1B
:100E0000F212356A70EF01F0DDEF01F0FBEF01F057
:100E1000880EF66E010EF76E31EC02F08A0EF66E59
:100E2000010EF76E31EC02F0020E506EFA0E596EA2
:100E300014EC01F0502EFAD7356A445228E182B6FC
:100E4000FED7450E41EC02F082B6FED70D0E41EC06
:100E500002F00A0E596E14EC01F02B50450812E115
:100E60002C500D080FE1010E446E940EF66E010E2B
:100E7000F76E31EC02F0960EF66E010EF76E31EC65
:100E800002F004D00A0E596E14EC01F0D6D7356A80
:100E9000455232E182B6FED7650E41EC02F082B6D1
:100EA000FED70D0E41EC02F00A0E596E14EC01F063
:100EB0003550352A036A2B0FE96E000E0320EA6EC7
:100EC00036C0EFFF2B50650812E12C500D080FE1E2
:100ED000010E456EA00EF66E010EF76E31EC02F0BB
:100EE000A20EF66E010EF76E31EC02F004D00A0E7F
:100EF000596E14EC01F0CCD7AE0EF66E010EF76E03
:100F000031EC02F0B00EF66E010EF76E31EC02F02D
:100F1000020E506EFA0E596E14EC01F0502EFAD7F4
:100F2000356A0D0E41EC02F00A0E596E14EC01F018
:100F30003550352A036A2B0FE96E000E0320EA6E46
:100F400036C0EFFF2B50440819E12C503A0816E147
:100F50002D505C0813E12E503E0810E12F500D0873
:100F60000DE1BE0EF66E010EF76E31EC02F0C00E12
:100F7000F66E010EF76E31EC02F015D0CC0EF66E67
:100F8000010EF76E31EC02F0CE0EF66E010EF76E2A
:100F900031EC02F0020E506EFA0E596E14EC01F0B4
:100FA000502EFAD735D7DE0EF66E010EF76E31EC05
:100FB00002F061EC02F001C043F04350310803E05D
:100FC00043503208F6E14350310802E173EF03F079
:100FD000C1EF03F00C0E586E10EC02F0870E546E49
:100FE000BAEC01F001C050F001C055F00BDC01C0BB
:100FF00046F0890E546EBAEC01F001C050F001C009
:1010000055F000DC01C047F08D0E546EBAEC01F0D3
:1010100001C050F001C055F002EC04F001C048F0EE
:101020008B0E546EBAEC01F001C050F001C055F0C7
:1010300002EC04F001C049F0850E546EBAEC01F0E8
:1010400001C050F001C055F002EC04F001C04AF0BC
:10105000830E546EBAEC01F001C050F001C055F09F
:1010600002EC04F001C04BF0810E546EBAEC01F0BA
:1010700001C050F001C055F002EC04F001C04CF08A
:1010800046C050F0110E516E19EC04F02F0E586E40
:1010900010EC02F047C050F0110E516E19EC04F044
:1010A0002F0E586E10EC02F048C050F0110E516E29
:1010B00019EC04F00A0E586E10EC02F04AC050F021
:1010C000110E516E19EC04F03A0E586E10EC02F04D
:1010D0004BC050F0110E516E19EC04F03A0E586EE0
:1010E00010EC02F04CC050F0110E516E19EC04F0EF
:1010F000FA0E596E14EC01F04AC023F04BC024F0F4
:101100002350255CD8A4EED12450265CD8A4EAD183
:1011100095908C800C0E586E10EC02F0870E546E79
:10112000BAEC01F001C050F001C055F002EC04F03F
:1011300001C01FF0890E546EBAEC01F001C050F0EE
:1011400001C055F002EC04F001C020F08D0E546E89
:10115000BAEC01F001C050F001C055F002EC04F00F
:1011600001C021F08B0E546EBAEC01F001C050F0BA
:1011700001C055F002EC04F001C022F0850E546E5F
:10118000BAEC01F001C050F001C055F002EC04F0DF
:1011900001C023F0830E546EBAEC01F001C050F090
:1011A00001C055F002EC04F001C024F0810E546E31
:1011B000BAEC01F001C050F001C055F002EC04F0AF
:1011C00001C04CF0295025244D6E2A5026244E6E25
:1011D0004D50170808E24DC05FF0180E606E04EC29
:1011E00003F000C04DF04E503B081EE24EC05FF0D1
:1011F0003C0E606E04EC03F001C04FF04EC05FF097
:101200003C0E606E04EC03F000C04EF04F502524FD
:101210004D6E4D50170808E24DC05FF0180E606E1D
:1012200004EC03F000C04DF023C050F0110E516EDD
:1012300019EC04F03A0E586E10EC02F024C050F095
:10124000110E516E19EC04F03A0E586E10EC02F0CB
:101250004CC050F0110E516E19EC04F00A0E586E8D
:1012600010EC02F04DC050F0110E516E19EC04F06C
:101270003A0E586E10EC02F04EC050F0110E516E46
:1012800019EC04F0FA0E596E14EC01F023504D5C89
:10129000D8A427D124504E5CD8A423D14DC025F02A
:1012A0004EC026F0356A3552D8A404D195908C8072
:1012B000020E506EFA0E596E14EC01F0502EFAD751
:1012C00095908C90020E506EFA0E596E14EC01F04F
:1012D000502EFAD7000E016EC250C70B0110C26E1D
:1012E000640E596E14EC01F0C284C2B4FED7C3CFB1
:1012F00037F0C4CF38F038C053F037C052F04CEC60
:1013000004F0606A5F6A200E5E6E810E5D6E03C03F
:1013100064F002C063F001C062F000C061F067ECED
:1013200004F003C053F002C052F001C051F000C0FD
:1013300050F003C057F002C056F001C055F000C095
:1013400054F05B6AC00E5A6E7F0E596E880E586E4E
:10135000E0EC04F003C03CF002C03BF001C03AF006
:1013600000C039F00A0E596E14EC01F0080E016E3F
:10137000C250C70B0110C26E640E596E14EC01F01E
:10138000C284C2B4FED7C3CF37F0C4CF38F0010E49
:10139000516EF40E506E38C053F037C052F08DEFDE
:1013A00005F002C051F001C050F002C053F001C07E
:1013B00052F04CEC04F003C057F002C056F001C0EC
:1013C00055F000C054F05B6AC00E5A6E7F0E596E25
:1013D000880E586EE0EC04F003C040F002C03FF00D
:1013E00001C03EF000C03DF00A0E596E14EC01F051
:1013F000F00EF66E010EF76E9DEC05F00D0E41EC51
:1014000002F0490E41EC02F0500E41EC02F0410EA8
:1014100041EC02F00D0E41EC02F0570E41EC02F0EF
:10142000520E41EC02F0460E41EC02F0200E41EC6F
:1014300002F0000E41EC02F0000E41EC02F0000E52
:1014400041EC02F01B0E41EC02F00D0E41EC02F0FB
:10145000890EE96E3CC053F03BC052F03AC051F0E7
:1014600039C050F0020E546E15EC06F0090E9EA81D
:10147000FED7AD6E890EE96E40C053F03FC052F00A
:101480003EC051F03DC050F0020E546E15EC06F017
:101490000A0E9EA8FED7AD6E0D0E41EC02F0000EB6
:1014A000F66E020EF76E9DEC05F00D0E41EC02F0AB
:1014B000352AF9D62350275C14E12450285C11E129
:1014C00095908C900C0E586E10EC02F0100EF66E8B
:1014D000020EF76E31EC02F0640E596E14EC01F05E
:0814E00077D518D677D503007B
:020000040030CA
:0E00000000220E0E000181000FC00FE00F4025
:00000001FF
;PIC18F452
;CRC=9781  CREATED="08-Sep-18 21:50"
